:020000040800F2
:1000000000500020E9380008B1360008B936000871
:10001000C1360008C9360008D136000800000000CB
:10002000000000000000000000000000D9360008B9
:10003000E536000800000000F1360008FD36000833
:1000400031390008313900083139000831390008E8
:1000500031390008313900083139000831390008D8
:1000600031390008313900083139000831390008C8
:1000700031390008313900083139000831390008B8
:1000800031390008313900083139000831390008A8
:100090003139000831390008313900083139000898
:1000A0003139000831390008313900083139000888
:1000B0003139000831390008313900083139000878
:1000C0003139000831390008313900083139000868
:1000D000093700081D370008313900083139000898
:1000E00031390008313900083139000800000000BA
:1000F0000000000000000000000000000000000000
:0C01000000000000000000005FF808F1A3
:1001100010B5054C237833B9044B13B10448AFF341
:1001200000800123237010BDD801002000000000D2
:10013000448A000808B5034B1BB103490348AFF3D9
:10014000008008BD00000000DC010020448A000897
:10015000034613F8012B002AFBD1181A0138704707
:1001600081F0004102E000BF83F0004330B54FEA68
:1001700041044FEA430594EA050F08BF90EA020FD5
:100180001FBF54EA000C55EA020C7FEA645C7FEA68
:10019000655C00F0E2804FEA5454D4EB5555B8BF8B
:1001A0006D420CDD2C4480EA020281EA030382EAFC
:1001B000000083EA010180EA020281EA0303362D8E
:1001C00088BF30BD11F0004F4FEA01314FF4801C61
:1001D0004CEA113102D0404261EB410113F0004F73
:1001E0004FEA03334CEA133302D0524263EB43032A
:1001F00094EA050F00F0A780A4F10104D5F1200EC8
:100200000DDB02FA0EFC22FA05F2801841F1000122
:1002100003FA0EF2801843FA05F359410EE0A5F1F6
:1002200020050EF1200E012A03FA0EFC28BF4CF027
:10023000020C43FA05F3C01851EBE37101F00045DD
:1002400007D54FF0000EDCF1000C7EEB00006EEBEA
:100250000101B1F5801F1BD3B1F5001F0CD3490874
:100260005FEA30004FEA3C0C04F101044FEA4452CB
:1002700012F5800F80F09A80BCF1004F08BF5FEA52
:10028000500C50F1000041EB045141EA050130BD32
:100290005FEA4C0C404141EB0101013C28BFB1F544
:1002A000801FE9D291F0000F04BF01460020B1FA8F
:1002B00081F308BF2033A3F10B03B3F120020CDA62
:1002C0000C3208DD02F1140CC2F10C0201FA0CF040
:1002D00021FA02F10CE002F11402D8BFC2F1200CA5
:1002E00001FA02F120FA0CFCDCBF41EA0C0190405B
:1002F000E41AA2BF01EB0451294330BD6FEA0404A4
:100300001F3C1CDA0C340EDC04F11404C4F120028E
:1003100020FA04F001FA02F340EA030021FA04F3A0
:1003200045EA030130BDC4F10C04C4F1200220FAF7
:1003300002F001FA04F340EA0300294630BD21FA35
:1003400004F0294630BD94F0000F83F4801306BFFB
:1003500081F480110134013D4EE77FEA645C18BFEF
:100360007FEA655C29D094EA050F08BF90EA020F86
:1003700005D054EA000C04BF1946104630BD91EA7E
:10038000030F1EBF0021002030BD5FEA545C05D181
:100390004000494128BF41F0004130BD14F58004C0
:1003A0003CBF01F5801130BD01F0004545F0FE4134
:1003B00041F470014FF0000030BD7FEA645C1ABF69
:1003C000194610467FEA655C1CBF0B46024650EAA0
:1003D000013406BF52EA033591EA030F41F40021CC
:1003E00030BD00BF90F0000F04BF0021704730B552
:1003F0004FF4806404F132044FF000054FF0000127
:1004000050E700BF90F0000F04BF0021704730B5E7
:100410004FF4806404F1320410F0004548BF4042BC
:100420004FF000013EE700BF42004FEAE2014FEA11
:1004300031014FEA02701FBF12F07F4393F07F4FEC
:1004400081F06051704732F07F4208BF704793F0EF
:100450007F4F04BF41F40021704730B54FF4607402
:1004600001F0004521F000411CE700BF50EA010205
:1004700008BF704730B54FF000050AE050EA0102AE
:1004800008BF704730B511F0004502D5404261EB1E
:1004900041014FF4806404F132045FEA915C3FF45F
:1004A000D8AE4FF003025FEADC0C18BF03325FEAFC
:1004B000DC0C18BF033202EBDC02C2F1200300FAAD
:1004C00003FC20FA02F001FA03FE40EA0E0021FAD2
:1004D00002F11444BDE600BF70B54FF0FF0C4CF4C0
:1004E000E06C1CEA11541DBF1CEA135594EA0C0F72
:1004F00095EA0C0F00F0DEF82C4481EA030621EAAD
:100500004C5123EA4C5350EA013518BF52EA0335E7
:1005100041F4801143F4801338D0A0FB02CE4FF099
:100520000005E1FB02E506F00042E0FB03E54FF0C9
:100530000006E1FB03569CF0000F18BF4EF0010EC1
:10054000A4F1FF04B6F5007F64F5407404D25FEABD
:100550004E0E6D4146EB060642EAC62141EA555170
:100560004FEAC52040EA5E504FEACE2EB4F1FD0CB2
:1005700088BFBCF5E06F1ED8BEF1004F08BF5FEA30
:10058000500E50F1000041EB045170BD06F00046E2
:1005900046EA010140EA020081EA0301B4EB5C048F
:1005A000C2BFD4EB0C0541EA045170BD41F4801187
:1005B0004FF0000E013C00F3AB8014F1360FDEBFAC
:1005C000002001F0004170BDC4F10004203C35DA88
:1005D0000C341BDC04F11404C4F1200500FA05F30B
:1005E00020FA04F001FA05F240EA020001F00042AC
:1005F00021F0004110EBD37021FA04F642EB060122
:100600005EEA430E08BF20EAD37070BDC4F10C044B
:10061000C4F1200500FA04F320FA05F001FA04F20F
:1006200040EA020001F0004110EBD37041F10001FB
:100630005EEA430E08BF20EAD37070BDC4F1200506
:1006400000FA05F24EEA020E20FA04F301FA05F26E
:1006500043EA020321FA04F001F0004121FA04F216
:1006600020EA020000EBD3705EEA430E08BF20EAE6
:10067000D37070BD94F0000F0FD101F00046400020
:1006800041EB010111F4801F08BF013CF7D041EAA2
:10069000060195F0000F18BF704703F000465200A6
:1006A00043EB030313F4801F08BF013DF7D043EA77
:1006B0000603704794EA0C0F0CEA135518BF95EA2D
:1006C0000C0F0CD050EA410618BF52EA4306D1D1B4
:1006D00081EA030101F000414FF0000070BD50EAD3
:1006E000410606BF1046194652EA430619D094EA5D
:1006F0000C0F02D150EA013613D195EA0C0F05D147
:1007000052EA03361CBF104619460AD181EA03019A
:1007100001F0004141F0FE4141F470014FF0000052
:1007200070BD41F0FE4141F4780170BD70B54FF0ED
:10073000FF0C4CF4E06C1CEA11541DBF1CEA13556D
:1007400094EA0C0F95EA0C0F00F0A7F8A4EB05044F
:1007500081EA030E52EA03354FEA013100F0888046
:100760004FEA03334FF0805545EA131343EA12630F
:100770004FEA022245EA111545EA10654FEA0026C4
:100780000EF000419D4208BF964244F1FD0404F57D
:10079000407402D25B084FEA3202B61A65EB0305D9
:1007A0005B084FEA32024FF480104FF4002CB6EB96
:1007B000020E75EB030E22BFB61A754640EA0C0016
:1007C0005B084FEA3202B6EB020E75EB030E22BF56
:1007D000B61A754640EA5C005B084FEA3202B6EB97
:1007E000020E75EB030E22BFB61A754640EA9C0056
:1007F0005B084FEA3202B6EB020E75EB030E22BF26
:10080000B61A754640EADC0055EA060E18D04FEAE3
:10081000051545EA16754FEA06164FEAC30343EA83
:1008200052734FEAC2025FEA1C1CC0D111F4801F50
:100830000BD141EA00014FF000004FF0004CB6E749
:1008400011F4801F04BF01430020B4F1FD0C88BFE8
:10085000BCF5E06F3FF6AFAEB5EB030C04BFB6EBF3
:10086000020C5FEA500C50F1000041EB045170BDE6
:100870000EF0004E4EEA113114EB5C04C2BFD4EB13
:100880000C0541EA045170BD41F480114FF0000E97
:10089000013C90E645EA060E8DE60CEA135594EA13
:1008A0000C0F08BF95EA0C0F3FF43BAF94EA0C0F16
:1008B0000AD150EA01347FF434AF95EA0C0F7FF48B
:1008C00025AF104619462CE795EA0C0F06D152EADF
:1008D00003353FF4FDAE1046194622E750EA4106C3
:1008E00018BF52EA43067FF4C5AE50EA41047FF4D4
:1008F0000DAF52EA43057FF4EBAE12E74FF0FF3C39
:1009000006E000BF4FF0010C02E000BF4FF0010C09
:100910004DF804CD4FEA410C7FEA6C5C4FEA430C82
:1009200018BF7FEA6C5C1BD001B050EA410C0CBFD1
:1009300052EA430C91EA030F02BF90EA020F002033
:10094000704710F1000F91EA030F58BF994208BF9A
:1009500090422CBFD8176FEAE37040F00100704757
:100960004FEA410C7FEA6C5C02D150EA013C07D1AE
:100970004FEA430C7FEA6C5CD6D152EA033CD3D0F9
:100980005DF8040B704700BF8446104662468C46F3
:100990001946634600E000BF01B5FFF7B7FF002826
:1009A00048BF10F1000F01BD4DF808EDFFF7F4FF4F
:1009B0000CBF012000205DF808FB00BF4DF808EDDA
:1009C000FFF7EAFF34BF012000205DF808FB00BFFD
:1009D0004DF808EDFFF7E0FF94BF012000205DF81F
:1009E00008FB00BF4DF808EDFFF7CEFF94BF0120D4
:1009F00000205DF808FB00BF4DF808EDFFF7C4FFCD
:100A000034BF012000205DF808FB00BF4FEA410C15
:100A10007FEA6C5C02D150EA013C0AD14FEA430CF8
:100A20007FEA6C5C02D152EA033C02D14FF0000035
:100A300070474FF0010070474FEA410212F5001273
:100A400015D211D56FF47873B3EB625212D94FEA15
:100A5000C12343F0004343EA505311F0004F23FAFF
:100A600002F018BF404270474FF00000704750EA54
:100A7000013005D111F0004008BF6FF00040704711
:100A80004FF00000704700BF4FEA4102B2F1E0436F
:100A900024BFB3F5001CDCF1FE5C0DD901F0004C65
:100AA0004FEAC0024CEA5070B2F1004F40EB8300B5
:100AB00008BF20F00100704711F0804F21D113F1E1
:100AC0003872BCBF01F00040704741F480114FEA1A
:100AD0005252C2F11802C2F1200C10FA0CF320FAA3
:100AE00002F018BF40F001004FEAC1234FEAD323C0
:100AF00003FA0CFC40EA0C0023FA02F34FEA43032A
:100B0000CCE77FEA625307D150EA01331EBF4FF0B2
:100B1000FE4040F44000704701F0004040F0FE40CD
:100B200040F40000704700BF80F0004002E000BFCA
:100B300081F0004142001FBF5FEA410392EA030FC8
:100B40007FEA226C7FEA236C6AD04FEA1262D2EB12
:100B50001363C1BFD218414048404140B8BF5B4217
:100B6000192B88BF704710F0004F40F4000020F0B0
:100B70007F4018BF404211F0004F41F4000121F0C6
:100B80007F4118BF494292EA030F3FD0A2F1010210
:100B900041FA03FC10EB0C00C3F1200301FA03F14E
:100BA00000F0004302D5494260EB4000B0F5000F71
:100BB00013D3B0F1807F06D340084FEA310102F130
:100BC0000102FE2A51D2B1F1004F40EBC25008BFE2
:100BD00020F0010040EA03007047490040EB0000AC
:100BE000013A28BFB0F5000FEDD2B0FA80FCACF1AD
:100BF000080CB2EB0C0200FA0CF0AABF00EBC250DA
:100C000052421843BCBFD0401843704792F0000FC7
:100C100081F4000106BF80F400000132013BB5E71A
:100C20004FEA41037FEA226C18BF7FEA236C21D090
:100C300092EA030F04D092F0000F08BF08467047F5
:100C400090EA010F1CBF0020704712F07F4F04D1C3
:100C5000400028BF40F00040704712F100723CBFD6
:100C600000F50000704700F0004343F0FE4040F400
:100C7000000070477FEA226216BF08467FEA2363BE
:100C80000146420206BF5FEA412390EA010F40F4A9
:100C9000800070474FF0000304E000BF10F00043F5
:100CA00048BF40425FEA000C08BF704743F09643DC
:100CB00001464FF000001CE050EA010208BF7047F7
:100CC0004FF000030AE000BF50EA010208BF70477E
:100CD00011F0004302D5404261EB41015FEA010C93
:100CE00002BF84460146002043F0B64308BFA3F18B
:100CF0008053A3F50003BCFA8CF2083AA3EBC2536D
:100D000010DB01FA02FC634400FA02FCC2F120028B
:100D1000BCF1004F20FA02F243EB020008BF20F0C2
:100D20000100704702F1200201FA02FCC2F1200228
:100D300050EA4C0021FA02F243EB020008BF20EA1D
:100D4000DC7070474FF0FF0C1CEAD0521EBF1CEA4B
:100D5000D15392EA0C0F93EA0C0F6FD01A4480EA39
:100D6000010C400218BF5FEA41211ED04FF0006322
:100D700043EA501043EA5111A0FB01310CF000404E
:100D8000B1F5000F3EBF490041EAD3715B0040EA74
:100D9000010062F17F02FD2A1DD8B3F1004F40EB44
:100DA000C25008BF20F00100704790F0000F0CF017
:100DB000004C08BF49024CEA502040EA51207F3ADB
:100DC000C2BFD2F1FF0340EAC250704740F40000B6
:100DD0004FF00003013A5DDC12F1190FDCBF00F0A7
:100DE00000407047C2F10002410021FA02F1C2F155
:100DF000200200FA02FC5FEA310040F1000053EAF1
:100E00004C0308BF20EADC70704792F0000F00F03E
:100E1000004C02BF400010F4000F013AF9D040EA44
:100E20000C0093F0000F01F0004C02BF490011F4D8
:100E3000000F013BF9D041EA0C018FE70CEAD153D6
:100E400092EA0C0F18BF93EA0C0F0AD030F0004C56
:100E500018BF31F0004CD8D180EA010000F000400A
:100E6000704790F0000F17BF90F0004F084691F0C8
:100E7000000F91F0004F14D092EA0C0F01D1420202
:100E80000FD193EA0C0F03D14B0218BF084608D1CB
:100E900080EA010000F0004040F0FE4040F4000015
:100EA000704740F0FE4040F4400070474FF0FF0CA8
:100EB0001CEAD0521EBF1CEAD15392EA0C0F93EAEF
:100EC0000C0F69D0A2EB030280EA010C49024FEA41
:100ED000402037D04FF0805343EA111143EA1013FA
:100EE0000CF000408B4238BF5B0042F17D024FF4B2
:100EF000000C8B4224BF5B1A40EA0C00B3EB510F8D
:100F000024BFA3EB510340EA5C00B3EB910F24BF75
:100F1000A3EB910340EA9C00B3EBD10F24BFA3EBFA
:100F2000D10340EADC001B0118BF5FEA1C1CE0D1C2
:100F3000FD2A3FF650AF8B4240EBC25008BF20F075
:100F4000010070470CF0004C4CEA50207F32C2BFC9
:100F5000D2F1FF0340EAC250704740F400004FF066
:100F60000003013A37E792F0000F00F0004C02BF97
:100F7000400010F4000F013AF9D040EA0C0093F061
:100F8000000F01F0004C02BF490011F4000F013BBB
:100F9000F9D041EA0C0195E70CEAD15392EA0C0F23
:100FA00008D142027FF47DAF93EA0C0F7FF470AF5B
:100FB000084676E793EA0C0F04D14B023FF44CAF9E
:100FC00008466EE730F0004C18BF31F0004CCAD133
:100FD00030F000427FF45CAF31F000437FF43CAF6F
:100FE0005FE700BF4FF0FF3C06E000BF4FF0010C91
:100FF00002E000BF4FF0010C4DF804CD4FEA400273
:101000004FEA41037FEA226C18BF7FEA236C11D0BC
:1010100001B052EA530C18BF90EA010F58BFB2EB6F
:10102000030088BFC81738BF6FEAE17018BF40F0EF
:10103000010070477FEA226C02D15FEA402C05D1A3
:101040007FEA236CE4D15FEA412CE1D05DF8040B28
:10105000704700BF844608466146FFE70FB5FFF7BB
:10106000C9FF002848BF10F1000F0FBD4DF808ED73
:10107000FFF7F4FF0CBF012000205DF808FB00BF64
:101080004DF808EDFFF7EAFF34BF012000205DF8BE
:1010900008FB00BF4DF808EDFFF7E0FF94BF01200B
:1010A00000205DF808FB00BF4DF808EDFFF7D2FF08
:1010B00094BF012000205DF808FB00BF4DF808ED4B
:1010C000FFF7C8FF34BF012000205DF808FB00BF18
:1010D0004FEA40024FEA41037FEA226C02D15FEA05
:1010E000402C08D17FEA236C02D15FEA412C02D167
:1010F0004FF0000070474FF0010070474FEA400288
:10110000B2F1FE4F0FD34FF09E03B3EB12620DD935
:101110004FEA002343F0004310F0004F23FA02F09F
:1011200018BF404270474FF00000704712F1610F46
:1011300001D1420205D110F0004008BF6FF000401D
:1011400070474FF00000704742000ED2B2F1FE4FE0
:101150000BD34FF09E03B3EB126209D44FEA002386
:1011600043F0004323FA02F070474FF0000070474D
:1011700012F1610F01D1420202D14FF0FF307047EE
:101180004FF00000704700BF80B483B000AF05236C
:10119000FB8002E0FB88013BFB80FB88002BF9D140
:1011A00000BF00BF0C37BD4680BC704780B500AFA4
:1011B00001228021164802F09EFF0122402114489E
:1011C00002F099FFFFF7E0FF8021114802F07CFF59
:1011D0000346002B01D1002317E0002280210C4898
:1011E00002F089FFFFF7D0FF8021094802F06CFF71
:1011F0000346002B01D0002307E000228021044891
:1012000002F079FFFFF7C0FF0123184680BD00BF41
:10121000000C014080B500AF002240210D4802F0D3
:101220006AFFFFF7B1FF002280210A4802F063FF46
:10123000FFF7AAFF01224021064802F05CFFFFF7FA
:10124000A3FF01228021034802F055FFFFF79CFF16
:1012500000BF80BD000C014080B500AF00224021DE
:101260000D4802F048FFFFF78FFF002280210A4857
:1012700002F041FFFFF788FF01224021064802F0FB
:101280003AFFFFF781FF00224021034802F033FFBD
:10129000FFF77AFF00BF80BD000C014080B500AFB2
:1012A000002240210D4802F026FFFFF76DFF0122CA
:1012B00080210A4802F01FFFFFF766FF012240214C
:1012C000064802F018FFFFF75FFF002240210348A5
:1012D00002F011FFFFF758FF00BF80BD000C014076
:1012E00080B582B000AF00224021154802F003FF14
:1012F000FFF74AFF01228021114802F0FCFEFFF7B0
:1013000043FF012240210E4802F0F5FEFFF73CFFAB
:1013100080210B4802F0D8FE0346002B02D00123A7
:10132000FB7101E00023FB7100224021044802F020
:10133000E2FEFFF729FFFB7918460837BD4680BD5E
:10134000000C014080B584B000AF0346FB71082358
:10135000FB7321E000224021164802F0CCFEFFF78B
:1013600013FF97F90730002B05DA0122802111487D
:1013700002F0C1FE04E0002280210E4802F0BBFE14
:10138000FB795B00FB71FFF7FFFE0122402109485A
:1013900002F0B1FEFFF7F8FEFB7B5A1EFA73002B3A
:1013A000D8D100224021034802F0A5FE00BF10372B
:1013B000BD4680BD000C014080B582B000AF08235F
:1013C000FB710023BB7101228021174802F093FEBC
:1013D0001BE0BB795B00BB7100224021124802F088
:1013E0008AFEFFF7D1FE012240210F4802F083FE62
:1013F000FFF7CAFE80210C4802F066FE0346002B70
:1014000003D0BB7943F00103BB71FB795A1EFA711B
:10141000002BDED100224021034802F06CFEBB7994
:1014200018460837BD4680BD000C014080B582B02B
:1014300000AF03460A46FB711346BB71FFF7B6FEC9
:10144000AE20FFF77FFFFFF74BFF0346002B15D1C0
:10145000FB791846FFF776FFFFF742FF0346002BA4
:101460000ED1BB791846FFF76DFFFFF739FF034632
:10147000002B07D1FFF7CEFE012307E000BF02E0FB
:1014800000BF00E000BFFFF7C5FE00231846083785
:10149000BD4680BD80B584B000AF0346FB71FFF749
:1014A00085FEAE20FFF74EFFFFF71AFF0346002B25
:1014B0001CD1FB791846FFF745FFFFF711FF0346E4
:1014C000002B15D1FFF772FEAF20FFF73BFFFFF7B0
:1014D00007FF0346002B0DD1FFF76EFF0346FB739A
:1014E000FFF7DCFEFFF796FEFB7B07E000BF02E0A4
:1014F00000BF00E000BFFFF78DFE00231846103745
:10150000BD4680BD80B584B000AF03463960FB7135
:101510001346BB710023FB73BB79BB73FFF746FE19
:10152000AE20FFF70FFFFFF7DBFE0346002B59D17C
:10153000FB791846FFF706FFFFF7D2FE0346002BA4
:1015400052D1FFF733FEAF20FFF7FCFEFFF7C8FED6
:101550000346002B4AD13FE0FFF72EFF03467B7383
:10156000FFF77AFEFFF728FF03463B73FFF774FE91
:101570007B7B1BB21B021AB23B7B1BB2134319B21B
:10158000FB7B9B003A6813448AB21A80FFF714FF72
:1015900003467B73FFF760FEFFF70EFF03463B73C6
:1015A000BB7B012B02D1FFF779FE01E0FFF754FE70
:1015B0007B7B1BB21B021AB23B7B1BB2134319B2DB
:1015C000FB7B9B003A6813448AB25A80BB7B013B89
:1015D000BB73FB7B0133FB73BB7B002BBCD1FFF7E1
:1015E00019FE04E000BF02E000BF00E000BFFFF70B
:1015F00011FE00BF1037BD4680BD80B500AF0B2186
:101600000620FFF713FFF0210120FFF70FFF002155
:101610000020FFF70BFF33210920FFF707FF4721C9
:101620000720FFF703FF00210220FFF7FFFE002144
:101630000320FFF7FBFE0F210420FFF7F7FE00BF9A
:1016400080BD000080B582B000AF0346FB71F91D7C
:1016500001230122034803F0FBF900BF0837BD4610
:1016600080BD00BF3043002090B585B000AF044678
:10167000084611461A462346FB800346BB800B46AC
:101680007B8013463B803B8C1B0A9BB2FB733B8CDD
:10169000BB73384BB3F90030B7F906209A4264DACD
:1016A000354BB3F90030B7F904209A425DDAB7F947
:1016B0000620B7F9023013442E4AB2F900209342B3
:1016C00007DD2C4BB3F900309AB2FB88D31A9BB2DA
:1016D0007B80B7F90420B7F900301344264AB2F9E9
:1016E0000020934207DD244BB3F900309AB2BB8847
:1016F000D31A9BB23B80FB88D8B2BB88D9B2FB8897
:10170000DAB27B88DBB21344DBB2013BDCB2BB88CC
:10171000DAB23B88DBB21344DBB2013BDBB22246D8
:1017200000F072F83B88BB801AE07B88FB800DE0FC
:10173000FB7B184600F052F8BB7B184600F04EF8D1
:10174000B7F906309BB2013B9BB2FB80B7F906307C
:10175000002BEDDCB7F904309BB2013B9BB2BB80A0
:10176000B7F90430002BE0DC00E000BF1437BD46C1
:1017700090BD00BF000000200200002080B584B0B2
:1017800002AF0346FB80084BB3F90020074BB3F9C7
:101790000010FB8800930B4600210020FFF764FF38
:1017A00000BF0837BD4680BD0000002002000020B9
:1017B00080B582B000AF0346FB7100224FF40041B8
:1017C000054802F098FCFB791846FFF73BFF00BF85
:1017D0000837BD4680BD00BF0010014080B582B013
:1017E00000AF0346FB7101224FF40041054802F0AF
:1017F00082FCFB791846FFF725FF00BF0837BD467E
:1018000080BD00BF0010014090B583B000AF04461A
:10181000084611461A462346FB710346BB710B4628
:101820007B7113463B712A20FFF7C2FF0020FFF7B0
:10183000D5FF194B1A78FB791344DBB21846FFF732
:10184000CDFF0020FFF7CAFF134B1A787B791344B2
:10185000DBB21846FFF7C2FF2B20FFF7A9FF0020DD
:10186000FFF7BCFF0D4B1A78BB791344DBB2184667
:10187000FFF7B4FF0020FFF7B1FF084B1A783B7960
:101880001344DBB21846FFF7A9FF2C20FFF790FFA7
:1018900000BF0C37BD4690BDF4010020F5010020CB
:1018A00080B582B000AF0346FB7100224FF40041C7
:1018B000054802F020FCFB791846FFF7C3FE00BF85
:1018C0000837BD4680BD00BF0010014080B582B022
:1018D00000AF0346FB7101224FF40041054802F0BE
:1018E0000AFCFB791846FFF7ADFE00BF0837BD467E
:1018F00080BD00BF0010014080B582B000AF03463C
:10190000FB8001224FF40041094802F0F4FBFB8800
:101910001B0A9BB2DBB21846FFF794FEFB88DBB2D2
:101920001846FFF78FFE00BF0837BD4680BD00BFD9
:101930000010014080B500AF00224FF480410848FC
:1019400002F0D9FB642002F057F801224FF48041E5
:10195000034802F0D0FB322002F04EF800BF80BDF9
:101960000010014080B500AFFFF7E4FF1120FFF742
:1019700097FF782002F040F8B120FFF791FF012097
:10198000FFF7A4FF2C20FFF7A1FF2D20FFF79EFFFC
:10199000B220FFF785FF0120FFF798FF2C20FFF70B
:1019A00095FF2D20FFF792FFB320FFF779FF01206D
:1019B000FFF78CFF2C20FFF789FF2D20FFF786FF14
:1019C0000120FFF783FF2C20FFF780FF2D20FFF77A
:1019D0007DFFB420FFF764FF0720FFF777FFC020EB
:1019E000FFF75EFFA220FFF771FF0220FFF76EFFF7
:1019F0008420FFF76BFFC120FFF752FFC520FFF7E0
:101A000065FFC220FFF74CFF0A20FFF75FFF0020B1
:101A1000FFF75CFFC320FFF743FF8A20FFF756FF65
:101A20002A20FFF753FFC420FFF73AFF8A20FFF771
:101A30004DFFEE20FFF74AFFC520FFF731FF0E20D4
:101A4000FFF744FF3620FFF72BFFC820FFF73EFFCC
:101A5000E020FFF725FF0F20FFF738FF1A20FFF7E0
:101A600035FF0F20FFF732FF1820FFF72FFF2F2041
:101A7000FFF72CFF2820FFF729FF2020FFF726FF84
:101A80002220FFF723FF1F20FFF720FF1B20FFF777
:101A90001DFF2320FFF71AFF3720FFF717FF002055
:101AA000FFF714FF0720FFF711FF0220FFF70EFFDB
:101AB0001020FFF70BFFE120FFF7F2FE0F20FFF7EA
:101AC00005FF1B20FFF702FF0F20FFF7FFFE172087
:101AD000FFF7FCFE3320FFF7F9FE2C20FFF7F6FEA0
:101AE0002920FFF7F3FE2E20FFF7F0FE3020FFF74E
:101AF000EDFE3020FFF7EAFE3920FFF7E7FE3F203A
:101B0000FFF7E4FE0020FFF7E1FE0720FFF7DEFE0F
:101B10000320FFF7DBFE1020FFF7D8FE2A20FFF797
:101B2000BFFE0020FFF7D2FE0020FFF7CFFE00200F
:101B3000FFF7CCFE7F20FFF7C9FE2B20FFF7B0FE9A
:101B40000020FFF7C3FE0020FFF7C0FE0020FFF7D4
:101B5000BDFE9F20FFF7BAFEF020FFF7A1FE012097
:101B6000FFF7B4FEF620FFF79BFE0020FFF7AEFE66
:101B70003A20FFF795FE0520FFF7A8FE2920FFF782
:101B80008FFE00BF80BD90B583B000AF044608460D
:101B900011461A462346FB800346BB800B467B80DA
:101BA00013463B802A20FFF77BFE0020FFF78EFEC6
:101BB000FB88DBB20233DBB21846FFF787FE00205A
:101BC000FFF784FE7B88DBB20233DBB21846FFF7F7
:101BD0007DFE2B20FFF764FE0020FFF777FEBB8819
:101BE000DBB20333DBB21846FFF770FE0020FFF7CD
:101BF0006DFE3B88DBB20333DBB21846FFF766FEAF
:101C00002C20FFF74DFE00BF0C37BD4690BD80B5C0
:101C100082B000AF03460A46FB801346BB80BB88F8
:101C2000FA88B988F888FFF7AEFF00BF0837BD46CD
:101C300080BD80B584B000AF0346FB800B46BB80FF
:101C400013467B80FB88FB81BB88C3F18003FB804C
:101C5000FB89BB80FB8801339AB2BB8801339BB2FE
:101C6000B988F888FFF78FFF7B881846FFF744FE96
:101C700000BF1037BD4680BD80B584B000AF0346BD
:101C8000FB807F237F2200210020FFF77CFF2C2098
:101C9000FFF706FE0023FB600FE00023BB6006E0B9
:101CA000FB881846FFF728FEBB680133BB60BB68A2
:101CB0007F2BF5D9FB680133FB60FB687F2BECD9E8
:101CC00000BF00BF1037BD4680BD90B585B000AFE6
:101CD0000446084611461A462346FB800346BB804D
:101CE0000B467B8013463B803B88C3F1800398B250
:101CF000BB88C3F180039AB27B88F988FFF743FF62
:101D00002C20FFF7CDFD0023FB6014E00023BB6017
:101D100006E03B8C1846FFF7EFFDBB680133BB6064
:101D20003A88BB88D31A01331A46BB689342F0D372
:101D3000FB680133FB607A88FB88D31A01331A46AB
:101D4000FB689342E2D37F237F2200210020FFF72C
:101D50001AFF2C20FFF7A4FD00BF1437BD4690BD2D
:101D600080B584B000AFC7E90001D7E90023C7E917
:101D7000022307F1080304331B68002B14DAD7E9A8
:101D80000001FEF759FE03461846FEF787FF03469B
:101D90004FF07E511846FEF7CBFE03461846FEF77D
:101DA00043FB02460B460DE0D7E90001FEF744FE77
:101DB00003461846FEF772FF03461846FEF734FB4B
:101DC00002460B46104619461037BD4680BDB0B5D9
:101DD00088B000AFC7E90201C7E900234FF0000255
:101DE0004FF00003D7E90001FEF7DEFD0346002BAC
:101DF00004D04FF000024FF000034DE0D7E900237C
:101E0000D7E90201FEF792FC02460B46104619463E
:101E1000FFF7A6FFC7E90401D7E90023D7E90401CA
:101E2000FEF75AFB02460B46D7E90201FEF79CF982
:101E300002460B46C7E9062301231C464FF0000269
:101E40004FF00003D7E90201FEF7B8FD0346002B6F
:101E500001D100231C46E4B201231D464FF00002CD
:101E60004FF00003D7E90001FEF7A8FD0346002B61
:101E700001D100231D46EBB26340DBB2002B09D039
:101E8000D7E90023D7E90601FEF76EF902460B46B3
:101E9000C7E90623D7E90623104619462037BD4671
:101EA000B0BD0000000000002DE9B0438CB000AFD1
:101EB000C7E902010023FB624FF000024FF000036C
:101EC000D7E90201FEF77AFD0346002B0BD0012370
:101ED000FB62BB683B60FB6883F000437B60D7E933
:101EE0000023C7E9022392A3D3E90023D7E9020123
:101EF000FFF76DFFC7E902018FA3D3E90023D7E9FC
:101F00000201FEF779FD0346002B11D0FB6A002B7E
:101F10000CBF01230023DBB2FB6287A3D3E90023BC
:101F2000D7E90201FEF720F902460B46C7E9022372
:101F300083A3D3E90023D7E90201FEF75DFD034641
:101F4000002B0AD0D7E902237BA1D1E90001FEF7DB
:101F50000BF902460B46C7E902237BA3D3E9002312
:101F6000D7E90201FEF7E2FB02460B46104619468E
:101F7000FEF762FD0346BB62B86AFEF743FA72A33E
:101F8000D3E90023FEF7A8FA02460B46D7E902017F
:101F9000FEF7EAF802460B46C7E908236CA3D3E92B
:101FA0000023D7E90801FEF727FD0346002B0DD0DB
:101FB000BB6A0133BB6264A3D3E90023D7E90801FC
:101FC000FEF7D2F802460B46C7E90823624ABB6A0D
:101FD000DB001344D3E90023C7E90623BB6AC3F13E
:101FE00064035D4ADB001344D3E90023C7E90423FB
:101FF000D7E90423D7E90801FEF76EFA02460B463B
:1020000010461946D7E90623FEF7B0F802460B46FC
:1020100090469946D7E90823D7E90801FEF75CFA0C
:1020200002460B4610461946D7E90623FEF754FA36
:1020300002460B46104619464FF000024FF080430F
:10204000FEF774FB02460B4640464946FEF78CF805
:1020500002460B4690469946D7E90823D7E908017E
:10206000FEF73AFA02460B4610461946D7E908230E
:10207000FEF732FA02460B4610461946D7E904230A
:10208000FEF72AFA02460B46104619464FF00002A8
:10209000324BFEF74BFB02460B4640464946FEF7E5
:1020A00063F802460B4690469946D7E90823D7E9DC
:1020B0000801FEF711FA02460B4610461946D7E909
:1020C0000823FEF709FA02460B4610461946D7E9DF
:1020D0000823FEF701FA02460B4610461946D7E9D7
:1020E0000623FEF7F9F902460B46104619464FF053
:1020F00000021B4BFEF71AFB02460B4640464946C0
:10210000FEF734F802460B46C7E90223FB6A002BB0
:1021100004D0BC68FB6883F0004501E0D7E90245C4
:1021200022462B46104619463037BD46BDE8B083DF
:10213000182D4454FB211940182D4454FB2109400B
:10214000182D4454FB21F93F1A271792BF15903FD1
:102150001A271792BF15803FF08A00080000184028
:10216000000038400000000080B582B000AFC7E931
:1021700000010BA3D3E90023D7E90001FDF7F6FF27
:1021800002460B4610461946FFF78EFE02460B46E6
:10219000104619460837BD4680BD00BFAFF300802A
:1021A000182D4454FB21F93F82B090B587B000AFA1
:1021B000F860381D80E80600FB627B68FA6A114609
:1021C0001846FEF7BFFD03461C46BB683A6B114636
:1021D0001846FEF7B7FD034619462046FEF7A8FC51
:1021E00003463B617B683A6B11461846FEF7AAFD31
:1021F00003461C46BB68FA6A11461846FEF7A2FD64
:10220000034619462046FEF795FC03467B61FB68B2
:102210001A4607F1100393E8030082E80300F86808
:102220001C37BD46BDE8904002B07047000000007A
:1022300090B597B002AF78600023BB634FF4007392
:102240007B6340F2FF333B6300237B643CE07A6CAA
:10225000BB6B9A4221DABB6BDB007A681A4407F148
:102260000C0392E8030083E803007B6CDB007A68D0
:10227000D118BB6BDB007A6813440A4692E803006E
:1022800083E803007B6CDB007A6813441A4607F18D
:102290000C0393E8030082E803007B6B3B6408E0D7
:1022A000BA6B3B6CD31ABB633B6CDA0F13445B1005
:1022B0003B643A6CBB6B9A42F2DDBA6B3B6C1344E5
:1022C000BB637B6C01337B647A6C3B6B9A42BEDBF5
:1022D0004FF48063FB640123FB6302E0FB6B01337B
:1022E000FB63FB6CDA0F13445B10FB64FB6C012B8C
:1022F000F4D10123BB64ACE0BB6C013B022202FAC7
:1023000003F3FB62FB6ADA0F13445B10BB624FF00E
:102310007E53FB614FF000033B62B86AFEF772F830
:1023200002460B4650A1D1E90001FEF7FFF9024633
:102330000B4610461946FFF717FF02460B4610469C
:102340001946FEF7A1FB03467B61B86AFEF75AF80F
:1023500002460B4644A1D1E90001FEF7E7F9024627
:102360000B4610461946FFF79FFD02460B461046E6
:102370001946FEF789FB034683F00043BB61002347
:10238000BB635FE0BB6B7B644BE07A6CBB6A13445E
:102390007B627B6ADB007A681A4407F10C003B6AB7
:1023A0000093FB6906CAFFF7FFFE7B6CDB007A68CF
:1023B00013441868F9687B6ADB007A68D418FEF762
:1023C000B7FB034623607B6CDB007A6813445868D4
:1023D00039697B6ADB007A68D418FEF7A9FB0346EB
:1023E00063607B6CDB007A6813441868F9687B6C67
:1023F000DB007A68D418FEF79DFB034623607B6CF4
:10240000DB007A681344586839697B6CDB007A68B2
:10241000D418FEF78FFB034663607A6CFB6A1344A3
:102420007B647B6CB3F5806FAFDB07F11C00BB698D
:1024300000937B6907F11C0206CAFFF7B5FEBB6B70
:102440000133BB63BA6ABB6B9A429BDCBB6C013342
:10245000BB64BA6CFB6B9A427FF74EAF00BF00BF04
:102460005437BD4690BD00BF182D4454FB21094090
:1024700080B586B000AF786039600A237B617B69E4
:102480003B617B69DB007A6813441B68FB600A23AD
:102490007B6116E07B69DB007A6813441B68194690
:1024A000F868FEF7EDFD0346002B07D07B69DB00E3
:1024B0007A6813441B68FB607B693B617B6901336D
:1024C0007B617A693B689A42E4DB3B6918461837BE
:1024D000BD4680BD90B585B000AF78603960786842
:1024E000FEF7DCFB04463B681A683B689B681946AC
:1024F0001046FEF727FC034619462046FEF71AFB56
:102500000346FB603B681B681946F868FEF710FB42
:10251000034609491846FEF715FC03461846FEF720
:10252000EDFD03467B813B68FA681A60B7F90A3013
:1025300018461437BD4690BD0000A04090B585B048
:1025400000AF00237B810020FEF7A4FF03467B81C0
:102550007B8903F080039BB2002B50D03B1D0122EE
:1025600019460520FEF7CEFF0023FB603DE0264B19
:102570001B88B3F5806F35D2FB689B0010333B445A
:1025800033F80C3C204A128814461846FEF782FBAA
:1025900003461E4A42F834301B4B1B881B4ADB00A3
:1025A00013444FF000025A60FB689B0010333B4419
:1025B00033F80A3C144A128814461846FEF76AFBA0
:1025C0000346134A42F834300F4B1B88104ADB0095
:1025D00013444FF000025A600B4B1B8801339AB230
:1025E000094B1A80FB680133FB60FB68002BBEDDE2
:1025F000084B5B7A0133DAB2064B5A7200E000BF37
:1026000000BF1437BD4690BDF6010020F801002040
:10261000782200200043002090B587B002AF764BAF
:102620001B88B3F5806FC0F0E280744B00934FF4C9
:10263000FC6300220221662000F0DEFD6E4B0022CA
:102640001A806F4B01229A726E48FFF7F1FD6E48B7
:10265000FFF7EEFD0023FB6056E06A4AFB6852F884
:1026600033206849FB6851F8333019461046FEF7AD
:1026700069FB03461C46634AFB68DB0013445A6847
:102680006049FB68DB000B445B6819461046FEF7A7
:1026900059FB034619462046FEF74CFA03461846F6
:1026A00006F046F902465749FB6841F83320564A7E
:1026B000FB6852F833205449FB6851F8333019460F
:1026C0001046FEF73FFB03461C464F4AFB68DB0003
:1026D00013445A684C49FB68DB000B445B6819469D
:1026E0001046FEF72FFB034619462046FEF722FA56
:1026F0000346184606F01CF902464349FB6841F8B8
:102700003320FB680133FB60FB68B3F5806FA4DB0B
:102710003C213C48FFF7ACFE03467B813C213A4814
:10272000FFF7A6FE03463B817A893B89D31A13F152
:10273000020F49DB7A893B89D31A022B44DC3B899F
:1027400041F2707202FB03F3002B01DA03F2FF3354
:102750009B12FB80FB880A3B9AB2294B1A807B892B
:10276000294A52F83330274A126811461846FEF7B4
:10277000E9FA03461C467B89224A52F83330224A42
:10278000126811461846FEF7DDFA03461946204640
:10279000FEF78CFB03463B6039684FF07E50FEF736
:1027A000C7F9034619491846FEF7CCFA03461849FB
:1027B0001846FEF7BFF903463B60114A3B68536079
:1027C0000F4B00221A7209E00D4B00221A800C4BAD
:1027D0004FF000025A600A4B01221A72074B009315
:1027E00000234FF4FC620221662000F005FD00BFCB
:1027F0001437BD4690BD00BFF6010020608A000876
:1028000000430020F8010020782200200000C84288
:1028100000003C4280B588B000AF4FF00003FB6180
:102820004FF00003BB614FF000033B614FF000032A
:10283000FB6000237B6120E0784B1B88A3F108023A
:102840007B691344764A52F833301946F869FEF72B
:1028500071F90346FB61714B1B88A3F108027B6988
:102860001344704A52F833301946B869FEF762F9DA
:102870000346BB617B6901337B617B69072BDBDD31
:10288000F869FEF73BFC034667491846FFF722FE4E
:102890000346002B00DA0733DB101846FEF7FEF97B
:1028A00003463B61B869FEF729FC03465F491846B9
:1028B000FFF710FE0346002B00DA0733DB10184643
:1028C000FEF7ECF90346FB604FF00003BB604FF0EE
:1028D00000037B603B6983F000431846FDF7A4FDCD
:1028E0004FF00002524BFDF721FF02460B46104607
:1028F00019464FF000024F4BFDF738FC02460B46DD
:1029000010461946FEF7C0F80346BB60FB6883F02B
:1029100000431846FDF788FD4FF00002444BFDF7D9
:1029200005FF02460B46104619464FF00002414B88
:10293000FDF71CFC02460B4610461946FEF7A4F8AC
:1029400003467B603C49B868FEF7B8FB0346002BA2
:1029500001D0394B00E0BB68BB604FF00001B868A4
:10296000FEF78EFB0346002B02D04FF0000300E081
:10297000BB68BB6030497868FEF7A0FB0346002BBC
:1029800001D02D4B00E07B687B604FF00001786840
:10299000FEF776FB0346002B02D04FF0000300E069
:1029A0007B687B60254ABB681360244A7B68536060
:1029B0002349F869FEF764FB0346002B06D1204942
:1029C000F869FEF75DFB0346002B17D01D4B002274
:1029D0001A801C4B4FF000025A60104B1B88073BBB
:1029E0009AB20E4B1A80174B1B7A012B11D0154B44
:1029F00001221A72134B01229A720AE0114B1B7AC0
:102A0000012B06D10F4B00221A720E4B01229A7233
:102A1000FFE700BF2037BD4680BD00BFF6010020A4
:102A2000F8010020782200200C43002018430020E9
:102A300000004440000014400000D841F84200204B
:102A400000409C450043002080B584B002AF03469F
:102A5000FB80FB8800937F237F220121002000F070
:102A600093FBFB88009312237F220121002000F0BA
:102A70008BFBFB880093122364220121002000F0CD
:102A800083FBFB8800937F237F223921002000F005
:102A90007BFB00BF0837BD4680BD000080B584B019
:102AA00002AF0346FB71FB79002B02D0012B0ED045
:102AB0001BE048F21040FFF7C7FF0E4B009341F2B6
:102AC00082031F220221032000F096FB0DE01F204D
:102AD000FFF7BAFF084B009341F282034FF47042B4
:102AE0000221032000F088FB00BF00BF0837BD466D
:102AF00080BD00BF888A0008948A000890B587B01E
:102B000002AF0446084611461A462346FB710346A7
:102B1000BB710B46BB8013467B800423FB81FB7992
:102B2000002B01D17A2300E05923BB81BB79502BC4
:102B300030D8BB799AB2FB8913449BB2023398B266
:102B4000BB891C3B99B2BB799AB2FB8913449BB2F7
:102B500002339AB2BB8901339BB244F20824009439
:102B600000F038FABB799AB2FB8913449BB2013367
:102B700098B2BB891C3B99B2BB799AB2FB891344CA
:102B80009BB201339AB2BB8901339BB200240094FB
:102B900000F020FABB799AB2FB89134498B2BA8943
:102BA000BB88D31A99B2BB799AB2FB8913449BB202
:102BB00001339CB2BA897B88D31A9AB23B8C0093BA
:102BC0001346224600F006FA00BF1437BD4690BDFA
:102BD000B0B582B002AF244B1B88DCB2234B1D88FA
:102BE000234B1B681846FEF7AFFA03469BB248F624
:102BF000F07200922A4621460120FFF77FFF1A4B10
:102C00001B88DCB21B4B1D88194B5B681846FEF70E
:102C10009BFA03469BB24FF61F4200922A4621467A
:102C20000020FFF76BFF104B1B88502B04D80E4B76
:102C30001B8801339BB200E000230B4A13800C4B2E
:102C40001B681846FEF780FA03469AB2074B1A80B3
:102C5000074B5B681846FEF777FA03469AB2054BB6
:102C60001A8000BFBD46B0BD24430020264300208B
:102C7000F84200202843002080B590B002AF224BDC
:102C80001B881A463B1D2149184603F013FD3B1DC6
:102C9000009341F282034FF6E0721421282000F0E5
:102CA000ABFA194B5B681846FDF7BEFB14A3D3E9DA
:102CB0000023FDF7A1FE0346002B01D0144B01E0D9
:102CC000114B5B68104A53600F4B5B681846FDF769
:102CD000ABFB02460B46381D0E4903F0EBFC3B1DD7
:102CE000009341F2820340F2FF722621282000F077
:102CF00083FA00BF3837BD4680BD00BFAFF3008008
:102D00008FC2F5285CFF584000430020A08A0008CD
:102D1000E1FAC742A88A000880B582B002AF41F24A
:102D20008200FEF7A9FF48F21040FFF78DFE002356
:102D3000019344F2082300935B2357223C21032094
:102D400000F0DEF90023019344F2082300937C2372
:102D500057225D21032000F0D3F90023019344F2B0
:102D6000082300935B237D223C21592000F0C8F901
:102D70000023019344F2082300937C237D225D21EC
:102D8000592000F0BDF91D4B009341F282034FF62C
:102D9000E0721421032000F02FFA194B009341F246
:102DA000820340F2FF722621032000F025FA154B22
:102DB0000093002348F6F07243215B2000F01CFAD8
:102DC000114B009300234FF61F4264215B2000F05B
:102DD00013FA0E4B009300234FF4FC62022166208D
:102DE00000F00AFA0A4B009341F282031F220221EB
:102DF000032000F001FA00BFBD4680BDB48A000880
:102E0000BC8A0008C48A0008C88A0008608A0008D2
:102E1000888A000890B595B004AF244B5B7A072BE5
:102E200006D9224B00225A72FFF7F4FCFFF7D0FEBE
:102E30001E4B9B7A002B35D01C4B1B7A002B27D1C5
:102E40001A4B5B681A491846FEF724F90346002B13
:102E50001ED0164B1B881C46144B5B681846FDF7AA
:102E6000E3FA02460B461149097A38460291CDE948
:102E7000002322460F4903F01DFC3B461846FDF790
:102E800067F903469AB2394664230B4802F031F9D8
:102E9000064B00229A72054B1B7A1846FFF7FEFD7F
:102EA000FFF7EAFE00BF4437BD4690BD0043002057
:102EB0000000C842D08A00088843002098B500AFBF
:102EC000304B1B7A002B02D0012B02D054E000BF04
:102ED00052E02D4B1B78002B04D100F083FD0346FC
:102EE0002A4A136000F07EFD0246284B1B68D31A65
:102EF00040F6B73293421DD800F074FD0346244AD1
:102F0000A2FB03235C0900F06DFD02461F4B1B680A
:102F1000D31A204AA2FB03239B09C3F10403B4FB89
:102F2000F3F202FB03F3E31A002B01D100BF22E00E
:102F300000BF20E000F056FD0246144B1B68D31A78
:102F400040F6B83293420BD900F04CFD02460F4BCD
:102F50001B68D31A41F26F72934201D800BF0AE096
:102F600000F040FD0246094B1B68D31A41F2707213
:102F7000934200D900BF00BF024B1A7A024B1A706D
:102F800000BF98BD004300202A4300202C430020AE
:102F90001F85EB51D34D621080B500AF064B002268
:102FA0001A80054B4FF000025A60034B01229A72BF
:102FB000FFF7B2FE00BF80BD0043002080B500AF28
:102FC000FFF7BCFAFFF728FBFFF724FFFFF776FFB8
:102FD00000BF80BD90B58BB000AF044608461146D7
:102FE0001A462346FB800346BB800B467B80134674
:102FF0003B80FB88BA8811461846FEF708FE7A889F
:10300000FB88D31A7B623A88BB88D31A3B627B6AFF
:10301000002B02DB0123FB6105E04FF0FF33FB6176
:103020007B6A5B427B623B6A002B02DB0123BB6154
:1030300005E04FF0FF33BB613B6A5B423B627B6A5A
:103040005B00FB603B6A5B00BB607A6A3B6A9A424A
:1030500029DDBA687B6AD31A7B6100233B611DE0DE
:10306000FB88B9883A8F1846FEF7E3FD7B69002B91
:1030700008DB7A69FB68D31A7B61BB699AB2BB88AB
:103080001344BB807A69BB6813447B61FB699AB2C5
:10309000FB881344FB803B6901333B613A697B6ADF
:1030A0009A42DDDD28E0FA683B6AD31A7B6100238F
:1030B0003B611DE0FB88B9883A8F1846FEF7B9FDE1
:1030C0007B69002B08DB7A69BB68D31A7B61FB69DB
:1030D0009AB2FB881344FB807A69FB6813447B61D6
:1030E000BB699AB2BB881344BB803B6901333B6127
:1030F0003A693B6A9A42DDDD00BF2C37BD4690BD80
:1031000090B585B002AF0446084611461A462346DC
:10311000FB800346BB800B467B8013463B803C888C
:10312000FA88B988F8883B8B00932346FFF752FF53
:10313000BC887A88B988F8883B8B00932346FFF7D0
:1031400049FF3C88FA88398878883B8B009323466E
:10315000FFF740FFBC887A88398878883B8B0093DA
:103160002346FFF737FFFB88581CBB88591C7B8818
:103170005A1E3B885C1EBB8B00932346FEF7A5FDC1
:1031800000BF0C37BD4690BD90B585B002AF044678
:10319000084611461A462346FB800346BB800B4671
:1031A0007B8013463B803C88FA88B988F8883B8B43
:1031B00000932346FFF70EFFBC887A88B988F88809
:1031C0003B8B00932346FFF705FF3C88FA8839883C
:1031D00078883B8B00932346FFF7FCFEBC887A88F7
:1031E000398878883B8B00932346FFF7F3FE00BFB6
:1031F0000C37BD4690BD000090B585B000AF0446C9
:10320000084611461A462346FB800346BB800B4600
:103210007B8013463B80FB887B8158E03B6A1B78B0
:103220005BB2002B53DB3B6A1B78BB81BB890D2B48
:1032300005D17B89FB80BB881033BB8044E0BB8910
:10324000202B03D9BB89203BBB8101E00023BB813C
:103250000023FB7332E00023BB7329E0BB891A0112
:10326000FB7B13441E4AD35C1946BB7B802242FA87
:1032700003F30B40002B0AD0FA88BB7BD018BA8826
:10328000FB7B13447A881946FEF7D3FC0DE07A885D
:103290003B889A4209D0FA88BB7BD018BA88FB7B5E
:1032A00013443A881946FEF7C4FCBB7B0133BB7359
:1032B000BB7B072BD2D9FB7B0133FB73FB7B0F2B33
:1032C000C9D9FB880833FB803B6A01333B623B6A08
:1032D0001B78002BA2D100BF00BF1437BD4690BDA4
:1032E000188E000880B500AF00F024FB00F00BF84A
:1032F00000F0AEF800F04CF800F080F800F0E0FAD2
:1033000000F0EBFAFCE780B590B000AF07F11803CE
:1033100028220021184603F032FA3B1D00221A60D1
:103320005A609A60DA601A610123BB614FF48033FE
:10333000FB6100233B620123BB6202237B634FF4EA
:103340008033BB634FF4E013FB6307F118031846A7
:1033500000F0EAFE0346002B01D000F0E5F80F2351
:103360007B600223BB600023FB604FF480633B6102
:1033700000237B613B1D0221184601F057F90346EB
:10338000002B01D000F0D0F800BF4037BD4680BD13
:1033900080B500AF174B184A1A60164B4FF4827273
:1033A0005A60144B00229A60124B0022DA60114BD3
:1033B00000221A610F4B00225A610E4B4FF400722B
:1033C0009A610C4B0022DA610A4B00221A62094B07
:1033D00000225A62074B00229A62064B0A22DA62E6
:1033E000044801F0B1FA0346002B01D000F09CF82C
:1033F00000BF80BD304300200038004080B500AFE2
:10340000114B124A1A60104B4FF4E1325A600E4BC6
:1034100000229A600C4B0022DA600B4B00221A61EA
:10342000094B0C225A61084B00229A61064B00227C
:10343000DA61054801F00DFE0346002B01D000F0D3
:1034400073F800BF80BD00BF8843002000380140F2
:1034500080B588B000AF07F1100300221A605A60EF
:103460009A60DA602D4B9B692C4A43F010039361FC
:103470002A4B9B6903F01003FB60FB68274B9B6999
:10348000264A43F020039361244B9B6903F02003F9
:10349000BB60BB68214B9B69204A43F008039361E2
:1034A0001E4B9B6903F008037B607B681B4B9B6989
:1034B0001A4A43F004039361184B9B6903F0040319
:1034C0003B603B6800224FF46041154800F013FE5A
:1034D0000122C021134800F00EFE4FF460433B610F
:1034E00001237B610023BB610223FB6107F1100311
:1034F00019460B4800F064FCC0233B6101237B614B
:103500000023BB610323FB6107F110031946054843
:1035100000F056FC00BF2037BD4680BD00100240C1
:1035200000100140000C014080B400AF72B600BF33
:1035300000BFFDE780B483B000AF0E4B9B690D4A1E
:1035400043F0010393610B4B9B6903F001037B6024
:103550007B68084BDB69074A43F08053D361054B16
:10356000DB6903F080533B603B6800BF0C37BD460E
:1035700080BC70470010024080B588B000AF786012
:1035800007F1100300221A605A609A60DA607B68C3
:103590001B681A4A93422CD1194BDB69184A43F431
:1035A0008043D361164BDB6903F48043FB60FB6807
:1035B000134B9B69124A43F008039361104B9B69BC
:1035C00003F00803BB60BB684FF420433B61022358
:1035D0007B610323FB6107F110031946094800F0E2
:1035E000EFFB00220221242000F001FB242000F048
:1035F0001AFB00BF2037BD4680BD00BF0038004029
:1036000000100240000C014080B588B000AF786027
:1036100007F1100300221A605A609A60DA607B6832
:103620001B68204A934239D11F4B9B691E4A43F4C1
:10363000804393611C4B9B6903F48043FB60FB68F0
:10364000194B9B69184A43F004039361164B9B691D
:1036500003F00403BB60BB684FF400733B610223BB
:103660007B610323FB6107F1100319460F4800F04B
:10367000A7FB4FF480633B6100237B610023BB61A8
:1036800007F110031946094800F09AFB00220121B6
:10369000252000F0ACFA252000F0C5FA00BF203745
:1036A000BD4680BD003801400010024000080140C6
:1036B00080B400AF00BFFDE780B400AF00BFFDE7FE
:1036C00080B400AF00BFFDE780B400AF00BFFDE7EE
:1036D00080B400AF00BFFDE780B400AF00BFBD46BF
:1036E00080BC704780B400AF00BFBD4680BC70474F
:1036F00080B400AF00BFBD4680BC704780B500AF4E
:1037000000F05EF900BF80BD80B500AF024801F057
:10371000E3FA00BF80BD00BF3043002080B500AF9A
:10372000024801F071FD00BF80BD00BF884300204A
:1037300080B400AF01231846BD4680BC704780B5F9
:1037400082B000AF7860396003F06CF8034616224F
:103750001A604FF0FF3318460837BD4680BD80B56C
:1037600082B000AF78604FF0FF317868FFF7E7FF75
:1037700000BFFDE780B586B000AFF860B9607A6041
:1037800000237B610AE0AFF300800146BB685A1C4E
:10379000BA60CAB21A707B6901337B617A697B684F
:1037A0009A42F0DB7B6818461837BD4680BD80B56D
:1037B00086B000AFF860B9607A6000237B6109E0F1
:1037C000BB685A1CBA601B781846AFF300807B694F
:1037D00001337B617A697B689A42F1DB7B6818462A
:1037E0001837BD4680BD80B483B000AF78604FF01D
:1037F000FF3318460C37BD4680BC704780B483B099
:1038000000AF786039603B684FF400525A60002383
:1038100018460C37BD4680BC704780B483B000AFFB
:103820007860012318460C37BD4680BC704780B4D1
:1038300085B000AFF860B9607A600023184614378D
:10384000BD4680BC7047000080B586B000AF786090
:10385000144A154BD31A7B617B693B61134B1B6880
:10386000002B02D1114B124A1A60104B1A687B6868
:1038700013443A699A4207D202F0D4FF03460C225D
:103880001A604FF0FF3309E0084B1B68FB60074BE1
:103890001A687B681344054A1360FB68184618379A
:1038A000BD4680BD0050002000040000D043002031
:1038B0002845002080B400AF00BFBD4680BC7047E3
:1038C00080B500AFFEF74EF80020FDF757FFFDF77B
:1038D00094FEFFF761FB00BF80BD80B500AFFFF72E
:1038E0006DFB00BF80BD0000FFF7E4FF0B480C49F3
:1038F0000C4A002302E0D458C4500433C4188C424C
:10390000F9D3094A094C002301E013600432A242B2
:10391000FBD302F08DFFFFF7E5FC704700000020AD
:10392000D8010020C4970008D801002024450020B9
:10393000FEE7000080B500AF084B1B68074A43F064
:1039400010031360032000F047F90F2000F008F87F
:10395000FFF7F0FD0023184680BD00BF00200240A5
:1039600080B582B000AF7860124B1A68124B1B789A
:1039700019464FF47A73B3FBF1F3B2FBF3F3184635
:1039800000F05FF90346002B01D001230EE07B68B5
:103990000F2B0AD8002279684FF0FF3000F027F98A
:1039A000064A7B681360002300E0012318460837AD
:1039B000BD4680BD040000200C000020080000204F
:1039C00080B400AF054B1B781A46054B1B681344A7
:1039D000034A136000BFBD4680BC70470C00002046
:1039E000D443002080B400AF024B1B681846BD468C
:1039F00080BC7047D443002080B584B000AF7860AD
:103A0000FFF7F0FFB8607B68FB60FB68B3F1FF3F36
:103A100005D00A4B1B781A46FB681344FB6000BFB5
:103A2000FFF7E0FF0246BB68D31AFA689A42F7D85C
:103A300000BF00BF1037BD4680BD00BF0C00002096
:103A400080B485B000AF78607B6803F00703FB604B
:103A50000C4BDB68BB60BA684FF6FF031340BB60DA
:103A6000FB681A02BB68134343F0BF6343F400339F
:103A7000BB60044ABB68D36000BF1437BD4680BC3E
:103A8000704700BF00ED00E080B400AF044BDB687E
:103A90001B0A03F007031846BD4680BC704700BFF1
:103AA00000ED00E080B483B000AF0346FB7197F9EE
:103AB0000730002B0BDBFB7903F01F02064997F957
:103AC00007305B09012000FA02F241F8232000BF11
:103AD0000C37BD4680BC704700E100E080B483B085
:103AE00000AF03463960FB7197F90730002B0ADB02
:103AF0003B68DAB20C4997F907301201D2B20B4495
:103B000083F800230AE03B68DAB20849FB7903F046
:103B10000F03043B1201D2B20B441A7600BF0C37DC
:103B2000BD4680BC704700BF00E100E000ED00E052
:103B300080B489B000AFF860B9607A60FB6803F0C8
:103B40000703FB61FB69C3F10703042B28BF0423B0
:103B5000BB61FB690433062B02D9FB69033B00E020
:103B600000237B614FF0FF32BB6902FA03F3DA43B3
:103B7000BB681A407B699A404FF0FF317B6901FABC
:103B800003F3D9437B680B40134318462437BD46E3
:103B900080BC704780B582B000AF78607B68013B25
:103BA000B3F1807F01D301230FE00A4A7B68013B18
:103BB00053600F214FF0FF30FFF790FF054B0022BD
:103BC0009A60044B07221A60002318460837BD4646
:103BD00080BD00BF10E000E080B582B000AF78602B
:103BE0007868FFF72DFF00BF0837BD4680BD80B560
:103BF00086B000AF0346B9607A60FB7300237B6137
:103C0000FFF742FF78617A68B9687869FFF790FF3B
:103C1000024697F90F3011461846FFF75FFF00BFC5
:103C20001837BD4680BD80B582B000AF0346FB713A
:103C300097F907301846FFF735FF00BF0837BD4634
:103C400080BD80B582B000AF78607868FFF7A2FFD2
:103C5000034618460837BD4680BD80B485B000AF26
:103C600078600023FB737B6893F82130DBB2022B72
:103C700008D07B6804229A637B68002283F82020A6
:103C8000012320E07B681B681A687B681B6822F0B0
:103C90000E021A607B681B681A687B681B6822F03A
:103CA00001021A607B681A6C7B68DB6B012101FAE8
:103CB00002F25A607B68012283F821207B6800228F
:103CC00083F82020FB7B18461437BD4680BC704724
:103CD00080B584B000AF78600023FB737B6893F8F5
:103CE0002130DBB2022B05D07B6804229A630123CA
:103CF000FB7351E07B681B681A687B681B6822F0C5
:103D00000E021A607B681B681A687B681B6822F0C9
:103D100001021A607B681B68224A934229D07B68A3
:103D20001B68214A934222D07B681B681F4A93423A
:103D30001AD07B681B681E4A934212D07B681B68AE
:103D40001C4A93420AD07B681B681B4A934202D1EB
:103D50004FF480130EE04FF080730BE04FF480338C
:103D600008E04FF4805305E04FF4807302E0102325
:103D700000E00123114A53607B68012283F821206F
:103D80007B68002283F820207B685B6B002B03D0CC
:103D90007B685B6B78689847FB7B18461037BD469D
:103DA00080BD00BF080002401C00024030000240FD
:103DB00044000240580002406C00024000000240F3
:103DC00080B48BB000AF7860396000237B62002341
:103DD0003B6269E101227B6A02FA03F3FB613B6803
:103DE0001B68FA691340BB61BA69FB699A4240F0EB
:103DF00058813B685B689A4A93425ED0984A9342E6
:103E000075D8984A934258D0964A93426FD8964AAA
:103E1000934252D0944A934269D8944A93424CD0E8
:103E2000924A934263D8924A934246D0904A934230
:103E30005DD8122B2AD8122B59D801A252F823F0A0
:103E4000BB3E0008953E0008A73E0008E93E00087A
:103E5000EF3E0008EF3E0008EF3E0008EF3E00088E
:103E6000EF3E0008EF3E0008EF3E0008EF3E00087E
:103E7000EF3E0008EF3E0008EF3E0008EF3E00086E
:103E8000EF3E00089D3E0008B13E0008794A93428B
:103E900013D02CE03B68DB683B6229E03B68DB68C1
:103EA00004333B6224E03B68DB6808333B621FE07D
:103EB0003B68DB680C333B621AE03B689B68002B75
:103EC00002D104233B6213E03B689B68012B05D1C0
:103ED00008233B627B68FA691A6109E008233B62A8
:103EE0007B68FA695A6103E000233B6200E000BF8F
:103EF000BB69FF2B01D87B6801E07B6804337B61E1
:103F0000BB69FF2B02D87B6A9B0002E07B6A083BFF
:103F10009B003B617B691A680F213B6901FA03F33F
:103F2000DB431A40396A3B6901FA03F31A437B69A0
:103F30001A603B685B6803F08053002B00F0B1808F
:103F40004D4B9B694C4A43F0010393614A4B9B697B
:103F500003F00103BB60BB68484A7B6A9B080233DD
:103F600052F82330FB607B6A03F003039B000F22AF
:103F700002FA03F3DB43FA681340FB607B68404AB4
:103F8000934213D07B683F4A93420DD07B683E4AF0
:103F9000934207D07B683D4A934201D1032306E058
:103FA000042304E0022302E0012300E000237A6AF4
:103FB00002F0030292009340FA681343FB602F491A
:103FC0007B6A9B080233FA6841F823203B685B68F0
:103FD00003F48013002B06D02D4B9A682C49BB6943
:103FE00013438B6006E02A4B9A68BB69DB43284980
:103FF00013408B603B685B6803F40013002B06D012
:10400000234BDA682249BB691343CB6006E0204B9F
:10401000DA68BB69DB431E491340CB603B685B68D1
:1040200003F40033002B06D0194B5A681849BB69BA
:1040300013434B6006E0164B5A68BB69DB431449D7
:1040400013404B603B685B6803F48033002B21D046
:104050000F4B1A680E49BB6913430B6021E000BF88
:10406000000032100000311000002210000021106A
:10407000000012100000111000100240000001406A
:1040800000080140000C01400010014000140140F4
:10409000000401400B4B1A68BB69DB43094913401C
:1040A0000B607B6A01337B623B681A687B6A22FA89
:1040B00003F3002B7FF48EAE00BF00BF2C37BD464C
:1040C00080BC70470004014080B485B000AF7860C8
:1040D0000B467B807B689A687B881340002B02D05C
:1040E0000123FB7301E00023FB73FB7B18461437AD
:1040F000BD4680BC704780B483B000AF78600B468B
:104100007B8013467B707B78002B03D07A887B689A
:104110001A6103E07B881A047B681A6100BF0C37C0
:10412000BD4680BC7047000080B586B000AF7860A7
:104130007B68002B01D1012372E27B681B6803F0CE
:104140000103002B00F08780924B5B6803F00C03A7
:10415000042B0CD08F4B5B6803F00C03082B12D19F
:104160008C4B5B6803F48033B3F5803F0BD1894BF4
:104170001B6803F40033002B6CD07B685B68002B5A
:1041800068D101234CE27B685B68B3F5803F06D1C0
:10419000804B1B687F4A43F4803313602EE07B68BA
:1041A0005B68002B0CD17B4B1B687A4A23F480336D
:1041B0001360784B1B68774A23F4802313601DE05B
:1041C0007B685B68B3F5A02F0CD1724B1B68714AFA
:1041D00043F4802313606F4B1B686E4A43F48033B3
:1041E00013600BE06B4B1B686A4A23F48033136047
:1041F000684B1B68674A23F4802313607B685B6805
:10420000002B13D0FFF7EEFB386108E0FFF7EAFB65
:1042100002463B69D31A642B01D9032300E25D4BAC
:104220001B6803F40033002BF0D014E0FFF7DAFB37
:10423000386108E0FFF7D6FB02463B69D31A642BCE
:1042400001D90323ECE1534B1B6803F40033002B2B
:10425000F0D100E000BF7B681B6803F00203002B75
:1042600063D04C4B5B6803F00C03002B0BD0494B25
:104270005B6803F00C03082B1CD1464B5B6803F40E
:104280008033002B16D1434B1B6803F00203002B35
:1042900005D07B681B69012B01D00123C0E13D4B98
:1042A0001B6823F0F8027B685B69DB003949134324
:1042B0000B603AE07B681B69002B20D0364B012253
:1042C0001A60FFF78FFB386108E0FFF78BFB0246AF
:1042D0003B69D31A022B01D90323A1E12D4B1B68A3
:1042E00003F00203002BF0D02A4B1B6823F0F802E6
:1042F0007B685B69DB00274913430B6015E0264BA5
:1043000000221A60FFF76EFB386108E0FFF76AFBD6
:1043100002463B69D31A022B01D9032380E11D4BCE
:104320001B6803F00203002BF0D17B681B6803F0CD
:104330000803002B3AD07B689B69002B19D0174BE0
:1043400001221A60FFF74EFB386108E0FFF74AFBD5
:1043500002463B69D31A022B01D9032360E10D4BBE
:104360005B6A03F00203002BF0D0012000F0CEFACC
:104370001CE00A4B00221A60FFF734FB38610FE0A3
:10438000FFF730FB02463B69D31A022B08D90323FF
:1043900046E100BF00100240000042428004424259
:1043A000924B5B6A03F00203002BE9D17B681B6828
:1043B00003F00403002B00F0A6800023FB758B4B59
:1043C000DB6903F08053002B0DD1884BDB69874AF2
:1043D00043F08053D361854BDB6903F08053BB60AE
:1043E000BB680123FB75824B1B6803F48073002BB1
:1043F00018D17F4B1B687E4A43F480731360FFF72C
:10440000F1FA386108E0FFF7EDFA02463B69D31A8A
:10441000642B01D9032303E1754B1B6803F48073FC
:10442000002BF0D07B68DB68012B06D16F4B1B6A39
:104430006E4A43F0010313622DE07B68DB68002BBA
:104440000CD16A4B1B6A694A23F001031362674B64
:104450001B6A664A23F0040313621CE07B68DB6876
:10446000052B0CD1614B1B6A604A43F004031362B5
:104470005E4B1B6A5D4A43F0010313620BE05B4B2A
:104480001B6A5A4A23F001031362584B1B6A574AAE
:1044900023F0040313627B68DB68002B15D0FFF761
:1044A000A1FA38610AE0FFF79DFA02463B69D31A88
:1044B00041F28832934201D90323B1E04B4B1B6A8E
:1044C00003F00203002BEED014E0FFF78BFA386103
:1044D0000AE0FFF787FA02463B69D31A41F28832B5
:1044E000934201D903239BE0404B1B6A03F0020374
:1044F000002BEED1FB7D012B05D13C4BDB693B4A08
:1045000023F08053D3617B68DB69002B00F0878048
:10451000364B5B6803F00C03082B61D07B68DB69CA
:10452000022B46D1334B00221A60FFF75BFA386149
:1045300008E0FFF757FA02463B69D31A022B01D96C
:1045400003236DE0294B1B6803F00073002BF0D1AF
:104550007B681B6AB3F5803F08D1244B5B6823F46A
:1045600000327B689B68214913434B601F4B5B689B
:1045700023F474127B68196A7B685B6A0B431B49DE
:1045800013434B601B4B01221A60FFF72BFA386173
:1045900008E0FFF727FA02463B69D31A022B01D93C
:1045A00003233DE0114B1B6803F00073002BF0D098
:1045B00035E0104B00221A60FFF714FA386108E06A
:1045C000FFF710FA02463B69D31A022B01D90323E5
:1045D00026E0064B1B6803F00073002BF0D11EE0B1
:1045E0007B68DB69012B07D1012319E00010024031
:1045F00000700040600042420B4B5B68FB60FB6850
:1046000003F480327B681B6A9A4206D1FB6803F48C
:1046100070127B685B6A9A4201D0012300E000239C
:1046200018461837BD4680BD0010024080B584B0E2
:1046300000AF786039607B68002B01D10123D0E0A6
:104640006A4B1B6803F007033A689A4210D9674B1C
:104650001B6823F0070265493B6813430B60634BFB
:104660001B6803F007033A689A4201D00123B8E0BF
:104670007B681B6803F00203002B20D07B681B685B
:1046800003F00403002B05D0594B5B68584A43F4F0
:10469000E06353607B681B6803F00803002B05D0C0
:1046A000534B5B68524A43F460535360504B5B6812
:1046B00023F0F0027B689B684D4913434B607B6895
:1046C0001B6803F00103002B40D07B685B68012B63
:1046D00007D1474B1B6803F40033002B15D101238E
:1046E0007FE07B685B68022B07D1414B1B6803F0BE
:1046F0000073002B09D1012373E03D4B1B6803F0CD
:104700000203002B01D101236BE0394B5B6823F0DE
:1047100003027B685B68364913434B60FFF762F91D
:10472000F8600AE0FFF75EF90246FB68D31A41F22F
:104730008832934201D9032353E02D4B5B6803F089
:104740000C027B685B689B009A42EBD1274B1B688D
:1047500003F007033A689A4210D2244B1B6823F0F7
:10476000070222493B6813430B60204B1B6803F090
:1047700007033A689A4201D0012332E07B681B6844
:1047800003F00403002B08D0194B5B6823F4E062AC
:104790007B68DB68164913434B607B681B6803F03A
:1047A0000803002B09D0124B5B6823F460527B682E
:1047B0001B69DB000E4913434B6000F021F80246F1
:1047C0000B4B5B681B0903F00F030A49CB5C22FA11
:1047D00003F3094A1360094B1B681846FFF7C0F83A
:1047E000002318461037BD4680BD00BF00200240A0
:1047F000001002400C940008040000200800002073
:1048000080B487B000AF0023FB600023BB600023AF
:104810007B6100237B6000233B611E4B5B68FB6078
:10482000FB6803F00C03042B02D0082B03D027E015
:10483000194B3B6127E0FB689B0C03F00F03174A01
:10484000D35C7B60FB6803F48033002B10D0114BEA
:104850005B685B0C03F00103114AD35CBB607B68AF
:104860000D4A03FB02F2BB68B2FBF3F37B6104E089
:104870007B680C4A02FB03F37B617B693B6102E0CE
:10488000054B3B6100BF3B6918461C37BD4680BCE9
:10489000704700BF0010024000127A002494000804
:1048A0003494000800093D0080B400AF024B1B683F
:1048B0001846BD4680BC70470400002080B500AF9C
:1048C000FFF7F2FF0246054B5B681B0A03F0070384
:1048D0000349CB5C22FA03F3184680BD0010024066
:1048E0001C94000880B500AFFFF7DEFF0246054BC1
:1048F0005B68DB0A03F007030349CB5C22FA03F38E
:10490000184680BD001002401C94000880B485B099
:1049100000AF78600A4B1B680A4AA2FB03235B0ABC
:104920007A6802FB03F3FB6000BFFB685A1EFA6063
:10493000002BF9D100BF00BF1437BD4680BC7047C3
:1049400004000020D34D621080B582B000AF7860C3
:104950007B68002B01D1012376E07B685B6A002B2A
:1049600008D17B685B68B3F5827F09D07B68002241
:10497000DA6105E07B6800221A617B6800225A61D7
:104980007B6800229A627B6893F85130DBB2002B7F
:1049900006D17B68002283F850207868FEF7ECFD92
:1049A0007B68022283F851207B681B681A687B6849
:1049B0001B6822F040021A607B685B6803F4827215
:1049C0007B689B6803F404431A437B68DB6803F449
:1049D00000631A437B681B6903F002031A437B6878
:1049E0005B6903F001031A437B689B6903F400735E
:1049F0001A437B68DB6903F038031A437B681B6A40
:104A000003F0800342EA03017B689B6A03F40052CF
:104A10007B681B680A431A607B689B691A0C7B6879
:104A20001B6802F004025A607B681B68DA697B68C5
:104A30001B6822F40062DA617B6800225A657B6899
:104A4000012283F85120002318460837BD4680BD57
:104A500080B588B000AFF860B9603B601346FB805A
:104A6000FEF7C0FFF861FB887B83FB6893F8513049
:104A7000DBB2012B01D002232AE1BB68002B02D05C
:104A8000FB88002B01D1012322E1FB6893F8503011
:104A9000012B01D102231BE1FB68012283F8502086
:104AA000FB68032283F85120FB6800225A65FB68EB
:104AB000BA681A63FB68FA889A86FB68FA88DA860D
:104AC000FB6800229A63FB6800229A87FB68002239
:104AD000DA87FB6800225A64FB6800221A64FB68CC
:104AE0009B68B3F5004F0FD1FB681B681A68FB6821
:104AF0001B6822F040021A60FB681B681A68FB689A
:104B00001B6842F480421A60FB681B681B6803F054
:104B10004003402B07D0FB681B681A68FB681B68C2
:104B200042F040021A60FB68DB68B3F5006F52D1B7
:104B3000FB685B68002B02D07B8B012B45D1FB68A7
:104B40001B6B1A88FB681B68DA60FB681B6B9A1C7E
:104B5000FB681A63FB68DB8E9BB2013B9AB2FB6871
:104B6000DA8632E0FB681B689B6803F00203022BC5
:104B700012D1FB681B6B1A88FB681B68DA60FB6844
:104B80001B6B9A1CFB681A63FB68DB8E9BB2013BB4
:104B90009AB2FB68DA8618E0FEF724FF0246FB694A
:104BA000D31A3A689A4203D83B68B3F1FF3F02D167
:104BB0003B68002B09D1FB68012283F85120FB6878
:104BC000002283F85020032382E0FB68DB8E9BB237
:104BD000002BC7D153E0FB685B68002B02D07B8BB6
:104BE000012B47D1FB681A6BFB681B680C331278EA
:104BF0001A70FB681B6B5A1CFB681A63FB68DB8E20
:104C00009BB2013B9AB2FB68DA8633E0FB681B6813
:104C10009B6803F00203022B13D1FB681A6BFB683D
:104C20001B680C3312781A70FB681B6B5A1CFB68EC
:104C30001A63FB68DB8E9BB2013B9AB2FB68DA8693
:104C400018E0FEF7CFFE0246FB69D31A3A689A4293
:104C500003D83B68B3F1FF3F02D13B68002B09D179
:104C6000FB68012283F85120FB68002283F8502062
:104C700003232DE0FB68DB8E9BB2002BC6D1FA69C3
:104C80003968F86800F0B4F90346002B02D0FB68DD
:104C900020225A65FB689B68002B0AD100237B61A8
:104CA000FB681B68DB687B61FB681B689B687B613A
:104CB0007B69FB68012283F85120FB68002283F89E
:104CC0005020FB685B6D002B01D0012300E0002326
:104CD00018462037BD4680BD80B588B000AF7860EB
:104CE0007B681B685B68FB617B681B689B68BB61BA
:104CF000BB699B0903F00103002B0FD1BB6903F0D3
:104D00000103002B0AD0FB699B0903F00103002B70
:104D100004D07B681B6C78689847BEE0BB695B0871
:104D200003F00103002B0AD0FB69DB0903F0010348
:104D3000002B04D07B685B6C78689847ADE0BB695A
:104D40005B0903F00103002B06D1BB699B0903F04B
:104D50000103002B00F0A180FB695B0903F0010354
:104D6000002B00F09A80BB699B0903F00103002B24
:104D700023D07B6893F85130DBB2032B11D07B68D2
:104D80005B6D43F004027B685A6500237B617B689E
:104D90001B68DB687B617B681B689B687B617B6948
:104DA0000BE000233B617B681B68DB683B617B6831
:104DB0001B689B683B613B696FE0BB695B0903F063
:104DC0000103002B14D07B685B6D43F001027B680C
:104DD0005A650023FB607B681B689B68FB607B68EF
:104DE0001B681A687B681B6822F040021A60FB6827
:104DF0007B685B6D002B4FD07B681B685A687B68B3
:104E00001B6822F0E0025A607B68012283F851207F
:104E1000FB6903F00203002B04D1FB6903F00103DB
:104E2000002B34D07B681B685A687B681B6822F0B3
:104E300003025A607B68DB6C002B11D07B68DB6C53
:104E4000174A5A637B68DB6C1846FEF741FF03463E
:104E5000002B05D07B685B6D43F040027B685A6590
:104E60007B689B6C002B16D07B689B6C0C4A5A634A
:104E70007B689B6C1846FEF72BFF0346002B0AD07D
:104E80007B685B6D43F040027B685A6503E078689D
:104E900000F008F800E000BF00BF2037BD4680BD2D
:104EA000B74E000880B483B000AF786000BF0C3705
:104EB000BD4680BC704780B584B000AF78607B6829
:104EC0005B6AFB60FB680022DA87FB680022DA86F7
:104ED000F868FFF7E7FF00BF1037BD4680BD000050
:104EE00080B588B000AFF860B9603B601346FB71D5
:104EF000FEF778FD0246BB6A9B1A3A681344FB61D1
:104F0000FEF770FDB861394B1B685B011B0DFA6938
:104F100002FB03F37B6154E03B68B3F1FF3F50D0E9
:104F2000FEF760FD0246BB69D31AFA699A4202D9BC
:104F3000FB69002B3DD1FB681B685A68FB681B6846
:104F400022F0E0025A60FB685B68B3F5827F11D102
:104F5000FB689B68B3F5004F04D0FB689B68B3F512
:104F6000806F07D1FB681B681A68FB681B6822F01A
:104F700040021A60FB689B6AB3F5005F0FD1FB68C3
:104F80001B681A68FB681B6822F400521A60FB68F1
:104F90001B681A68FB681B6842F400521A60FB68C1
:104FA000012283F85120FB68002283F8502003235C
:104FB00017E07B69002B01D10023FB617B69013B7A
:104FC0007B61FB681B689A68BB681340BA689A42A9
:104FD0000CBF01230023DBB21A46FB799A429BD116
:104FE000002318462037BD4680BD00BF04000020C6
:104FF00080B586B002AFF860B9607A607B680093D4
:10500000BB6801220221F868FFF76AFF0346002B04
:1050100007D0FB685B6D43F02002FB685A650323F1
:1050200013E07B680093BB6800228021F868FFF7DB
:1050300057FF0346002B07D0FB685B6D43F020024F
:10504000FB685A65032300E0002318461037BD466D
:1050500080BD80B582B000AF78607B68002B01D145
:10506000012342E07B6893F84130DBB2002B06D18C
:105070007B68002283F840207868FEF7C5FA7B68D9
:10508000242283F841207B681B68DA687B681B68F0
:1050900022F40052DA60786800F062FD7B681B68D9
:1050A0001A697B681B6822F490421A617B681B684E
:1050B0005A697B681B6822F02A025A617B681B6868
:1050C000DA687B681B6842F40052DA607B68002271
:1050D0005A647B68202283F841207B68202283F871
:1050E00042207B6800225A63002318460837BD46D9
:1050F00080BD80B58AB002AFF860B9603B601346EE
:10510000FB8000237B61FB6893F84130DBB2202BEE
:1051100075D1BB68002B02D0FB88002B01D1012385
:105120006EE0FB6800225A64FB68212283F841206C
:10513000FEF758FC7861FB68FA889A84FB68FA8865
:10514000DA84FB689B68B3F5805F08D1FB681B6954
:10515000002B04D10023FB61BB68BB6103E0BB688B
:10516000FB610023BB612EE03B6800937B6900225A
:105170008021F86800F000FB0346002B05D0FB6897
:10518000202283F8412003233AE0FB69002B0BD156
:10519000BB691B881A46FB681B68C2F308025A6089
:1051A000BB690233BB6107E0FB691A78FB681B68C7
:1051B0005A60FB690133FB61FB68DB8C9BB2013BEE
:1051C0009AB2FB68DA84FB68DB8C9BB2002BCBD1F4
:1051D0003B6800937B6900224021F86800F0CCFA1C
:1051E0000346002B05D0FB68202283F841200323CF
:1051F00006E0FB68202283F84120002300E0022320
:1052000018462037BD4680BD80B5BAB000AF786083
:105210007B681B681B68C7F8E4307B681B68DB6829
:10522000C7F8E0307B681B685B69C7F8DC30002397
:10523000C7F8D8300023C7F8D430D7F8E43003F0EB
:105240000F03C7F8D830D7F8D830002B0FD1D7F8D4
:10525000E43003F02003002B09D0D7F8E03003F04E
:105260002003002B03D0786800F0BCFB5BE2D7F88A
:10527000D830002B00F0DE80D7F8DC3003F00103DB
:10528000002B06D1D7F8E03003F49073002B00F028
:10529000D180D7F8E43003F00103002B0BD0D7F80E
:1052A000E03003F48073002B05D07B685B6C43F027
:1052B00001027B685A64D7F8E43003F00403002B42
:1052C0000BD0D7F8DC3003F00103002B05D07B684E
:1052D0005B6C43F002027B685A64D7F8E43003F059
:1052E0000203002B0BD0D7F8DC3003F00103002BB6
:1052F00005D07B685B6C43F004027B685A64D7F886
:10530000E43003F00803002B11D0D7F8E03003F0AD
:105310002003002B05D1D7F8DC3003F00103002B6C
:1053200005D07B685B6C43F008027B685A647B683D
:105330005B6C002B00F0F281D7F8E43003F020031F
:10534000002B08D0D7F8E03003F02003002B02D068
:10535000786800F047FB7B681B685B6903F04003DB
:10536000002B14BF01230023DBB2C7F8D4307B68C5
:105370005B6C03F00803002B03D1D7F8D430002B6B
:105380004FD0786800F051FA7B681B685B6903F0C6
:105390004003002B41D07B681B681433C7F89C3056
:1053A000D7F89C3053E8003FC7F89830D7F89830CA
:1053B00023F04003C7F8D0307B681B681433D7F85C
:1053C000D020C7F8A820C7F8A430D7F8A410D7F881
:1053D000A82041E80023C7F8A030D7F8A030002B60
:1053E000D9D17B68DB6B002B13D07B68DB6B7E4AEB
:1053F0005A637B68DB6B1846FEF76AFC0346002B9A
:1054000016D07B68DB6B5B6B7A68D26B1046984773
:105410000EE0786800F09CF90AE0786800F098F9EE
:1054200006E0786800F094F97B6800225A6475E120
:1054300000BF73E17B681B6B012B40F04F81D7F8F5
:10544000E43003F01003002B00F04881D7F8E0307F
:1054500003F01003002B00F041810023BB607B6848
:105460001B681B68BB607B681B685B68BB60BB68B4
:105470007B681B685B6903F04003002B00F0B6807B
:105480007B68DB6B1B685B68A7F8BE30B7F8BE3083
:10549000002B00F045817B689B8DB7F8BE209A42B7
:1054A00080F03E817B68B7F8BE20DA857B68DB6BD5
:1054B0009B69202B00F088807B681B680C33C7F841
:1054C0008830D7F8883053E8003FC7F88430D7F8E1
:1054D000843023F48073C7F8B8307B681B680C33C2
:1054E000D7F8B820C7F89420C7F89030D7F89010B4
:1054F000D7F8942041E80023C7F88C30D7F88C30D7
:10550000002BD9D17B681B6814337B677B6F53E812
:10551000003F3B673B6F23F00103C7F8B4307B6863
:105520001B681433D7F8B420C7F88020FB67F96FE5
:10553000D7F8802041E80023BB67BB6F002BE1D187
:105540007B681B6814333B663B6E53E8003FFB658A
:10555000FB6D23F04003C7F8B0307B681B68143341
:10556000D7F8B020FA66BB66B96EFA6E41E8002340
:105570007B667B6E002BE3D17B68202283F8422080
:105580007B6800221A637B681B680C33FB64FB6C2E
:1055900053E8003FBB64BB6C23F01003C7F8AC308A
:1055A0007B681B680C33D7F8AC20BA657B65796DD6
:1055B000BA6D41E800233B653B6D002BE3D17B686E
:1055C000DB6B1846FEF749FB7B6802225A637B6857
:1055D0009A8D7B68DB8D9BB2D31A9BB21946786893
:1055E00000F0BFF89CE000BFEF5800087B689A8D80
:1055F0007B68DB8D9BB2D31AA7F8CE307B68DB8D3E
:105600009BB2002B00F08E80B7F8CE30002B00F05C
:1056100089807B681B680C33BB63BB6B53E8003F1E
:105620007B637B6B23F49073C7F8C8307B681B687F
:105630000C33D7F8C8207A643B64396C7A6C41E843
:105640000023FB63FB6B002BE3D17B681B681433E7
:105650007B627B6A53E8003F3B623B6A23F00103B5
:10566000C7F8C4307B681B681433D7F8C4203A638A
:10567000FB62F96A3A6B41E80023BB62BB6A002B0C
:10568000E3D17B68202283F842207B6800221A63E2
:105690007B681B680C333B613B6953E8003FFB6050
:1056A000FB6823F01003C7F8C0307B681B680C331D
:1056B000D7F8C020FA61BB61B969FA6941E80023F3
:1056C0007B617B69002BE3D17B6802225A63B7F8C8
:1056D000CE301946786800F044F823E0D7F8E4307B
:1056E00003F08003002B09D0D7F8E03003F08003EB
:1056F000002B03D0786800F00EF914E0D7F8E430FE
:1057000003F04003002B0ED0D7F8E03003F0400345
:10571000002B08D0786800F04DF904E000BF02E0EB
:1057200000BF00E000BFE837BD4680BD80B483B055
:1057300000AF786000BF0C37BD4680BC704780B4B6
:1057400083B000AF786000BF0C37BD4680BC7047A7
:1057500080B483B000AF786000BF0C37BD4680BC1A
:10576000704780B483B000AF78600B467B8000BF89
:105770000C37BD4680BC704780B586B000AFF8607E
:10578000B9603B601346FB713BE03B6AB3F1FF3FFE
:1057900037D0FEF727F902463B68D31A3A6A9A4295
:1057A00002D33B6A002B01D103233AE0FB681B685C
:1057B000DB6803F00403002B23D0BB68802B20D0D0
:1057C000BB68402B1DD0FB681B681B6803F00803F7
:1057D000082B16D100237B61FB681B681B687B616B
:1057E000FB681B685B687B617B69F86800F01DF8EB
:1057F000FB6808225A64FB68002283F840200123DA
:105800000FE0FB681B681A68BB681340BA689A42CD
:105810000CBF01230023DBB21A46FB799A42B4D0B5
:10582000002318461837BD4680BD80B495B000AF40
:1058300078607B681B680C337B637B6B53E8003FAD
:105840003B633B6B23F49073FB647B681B680C33F6
:10585000FA6C3A64FB63F96B3A6C41E80023BB6372
:10586000BB6B002BE5D17B681B6814333B623B6A42
:1058700053E8003FFB61FB6923F00103BB647B68D5
:105880001B681433BA6CFA62BB62B96AFA6A41E8FF
:1058900000237B627B6A002BE5D17B681B6B012BAD
:1058A00019D17B681B680C33FB60FB6853E8003F31
:1058B000BB60BB6823F010037B647B681B680C3300
:1058C0007A6CBA617B617969BA6941E800233B610E
:1058D0003B69002BE5D17B68202283F842207B685E
:1058E00000221A6300BF5437BD4680BC704780B5A4
:1058F00084B000AF78607B685B6AFB60FB68002265
:10590000DA85FB680022DA84F868FFF721FF00BF20
:105910001037BD4680BD80B485B000AF78607B682D
:1059200093F84130DBB2212B3ED17B689B68B3F505
:10593000805F14D17B681B69002B10D17B681B6AC8
:10594000FB60FB681B881A467B681B68C2F3080271
:105950005A607B681B6A9A1C7B681A6208E07B6845
:105960001B6A591C7A6811621A787B681B685A6036
:105970007B68DB8C9BB2013B9BB27A681946D18471
:10598000002B0FD17B681B68DA687B681B6822F0EC
:105990008002DA607B681B68DA687B681B6842F00B
:1059A0004002DA60002300E0022318461437BD46A7
:1059B00080BC704780B582B000AF78607B681B68A0
:1059C000DA687B681B6822F04002DA607B6820227C
:1059D00083F841207868FFF7A9FE002318460837AE
:1059E000BD4680BD80B58CB000AF78607B6893F811
:1059F0004230DBB2222B40F0AE807B689B68B3F56F
:105A0000805F17D17B681B69002B13D10023FB62D9
:105A10007B689B6ABB627B681B685B689BB2C3F355
:105A200008039AB2BB6A1A807B689B6A9A1C7B68DF
:105A30009A6226E07B689B6AFB620023BB627B68FC
:105A40009B68B3F5805F07D07B689B68002B0AD109
:105A50007B681B69002B06D17B681B685B68DAB228
:105A6000FB6A1A7008E07B681B685B68DBB203F0B6
:105A70007F03DAB2FB6A1A707B689B6A5A1C7B68E8
:105A80009A627B68DB8D9BB2013B9BB27A681946B8
:105A9000D185002B5DD17B681B68DA687B681B6849
:105AA00022F02002DA607B681B68DA687B681B687A
:105AB00022F48072DA607B681B685A697B681B6815
:105AC00022F001025A617B68202283F842207B6821
:105AD00000225A637B681B6B012B35D17B68002247
